{
  "contractName": "Tether",
  "abi": [
    {
      "inputs": [],
      "name": "decimals",
      "outputs": [
        {
          "internalType": "uint8",
          "name": "",
          "type": "uint8"
        }
      ],
      "stateMutability": "view",
      "type": "function",
      "constant": true
    },
    {
      "inputs": [],
      "name": "name",
      "outputs": [
        {
          "internalType": "string",
          "name": "",
          "type": "string"
        }
      ],
      "stateMutability": "view",
      "type": "function",
      "constant": true
    },
    {
      "inputs": [],
      "name": "symbol",
      "outputs": [
        {
          "internalType": "string",
          "name": "",
          "type": "string"
        }
      ],
      "stateMutability": "view",
      "type": "function",
      "constant": true
    },
    {
      "inputs": [],
      "name": "totalSupply",
      "outputs": [
        {
          "internalType": "uint256",
          "name": "",
          "type": "uint256"
        }
      ],
      "stateMutability": "view",
      "type": "function",
      "constant": true
    }
  ],
  "bytecode": "0x60806040526040518060400160405280600b81526020017f46616b65205465746865720000000000000000000000000000000000000000008152506000908051906020019061004f9291906100d8565b506040518060400160405280600581526020017f46555344540000000000000000000000000000000000000000000000000000008152506001908051906020019061009b9291906100d8565b5069d3c21bcecceda10000006002556012600360006101000a81548160ff021916908360ff1602179055503480156100d257600080fd5b506101dc565b8280546100e4906101aa565b90600052602060002090601f016020900481019282610106576000855561014d565b82601f1061011f57805160ff191683800117855561014d565b8280016001018555821561014d579182015b8281111561014c578251825591602001919060010190610131565b5b50905061015a919061015e565b5090565b5b8082111561017757600081600090555060010161015f565b5090565b7f4e487b7100000000000000000000000000000000000000000000000000000000600052602260045260246000fd5b600060028204905060018216806101c257607f821691505b602082108114156101d6576101d561017b565b5b50919050565b6103bb806101eb6000396000f3fe608060405234801561001057600080fd5b506004361061004c5760003560e01c806306fdde031461005157806318160ddd1461006f578063313ce5671461008d57806395d89b41146100ab575b600080fd5b6100596100c9565b6040516100669190610297565b60405180910390f35b610077610157565b60405161008491906102d2565b60405180910390f35b61009561015d565b6040516100a29190610309565b60405180910390f35b6100b3610170565b6040516100c09190610297565b60405180910390f35b600080546100d690610353565b80601f016020809104026020016040519081016040528092919081815260200182805461010290610353565b801561014f5780601f106101245761010080835404028352916020019161014f565b820191906000526020600020905b81548152906001019060200180831161013257829003601f168201915b505050505081565b60025481565b600360009054906101000a900460ff1681565b6001805461017d90610353565b80601f01602080910402602001604051908101604052809291908181526020018280546101a990610353565b80156101f65780601f106101cb576101008083540402835291602001916101f6565b820191906000526020600020905b8154815290600101906020018083116101d957829003601f168201915b505050505081565b600081519050919050565b600082825260208201905092915050565b60005b8381101561023857808201518184015260208101905061021d565b83811115610247576000848401525b50505050565b6000601f19601f8301169050919050565b6000610269826101fe565b6102738185610209565b935061028381856020860161021a565b61028c8161024d565b840191505092915050565b600060208201905081810360008301526102b1818461025e565b905092915050565b6000819050919050565b6102cc816102b9565b82525050565b60006020820190506102e760008301846102c3565b92915050565b600060ff82169050919050565b610303816102ed565b82525050565b600060208201905061031e60008301846102fa565b92915050565b7f4e487b7100000000000000000000000000000000000000000000000000000000600052602260045260246000fd5b6000600282049050600182168061036b57607f821691505b6020821081141561037f5761037e610324565b5b5091905056fea264697066735822122057a5d4e9e7c5b49c21977af54816186671d195dde84d86ce96377a001cffced764736f6c634300080c0033",
  "immutableReferences": {},
  "source": "// SPDX-License-Identifier: GPL-3.0\npragma solidity >= 0.7.0 < 0.9.0;\n\ncontract Tether {\n    string  public name = \"Fake Tether\";\n    string  public symbol = \"FUSDT\";\n    uint256 public totalSupply = 1000000000000000000000000; // = 1,000,000.000000000000000000\n    uint8   public decimals = 18;\n/*\n    event Transfer(\n        address indexed _from,\n        address indexed _to, \n        uint _value\n    );\n\n    event Approval(\n        address indexed _owner,\n        address indexed _spender, \n        uint _value\n    );\n\n    mapping(address => uint256) public balanceOf;\n    mapping(address => mapping(address => uint256)) public allowance;\n    \n    constructor() {\n        balanceOf[msg.sender] = totalSupply;\n    }\n\n    function transfer(address _to, uint256 _value) public returns (bool success) {\n        // require that the value is greater or equal for transfer\n        require(balanceOf[msg.sender] >= _value);\n         // transfer the amount and subtract the balance\n        balanceOf[msg.sender] -= _value;\n        // add the balance\n        balanceOf[_to] += _value;\n        emit Transfer(msg.sender, _to, _value);\n        return true;\n    }\n\n    function approve(address _spender, uint256 _value) public returns (bool success) {\n        allowance[msg.sender][_spender] = _value;\n        emit Approval(msg.sender, _spender, _value);\n        return true;\n    }\n\n    function transferFrom(address _from, address _to, uint256 _value) public returns (bool success) {\n        require(_value <= balanceOf[_from]);\n        require(_value <= allowance[_from][msg.sender]);\n        // add the balance for transferFrom\n        balanceOf[_to] += _value;\n        // subtract the balance for transferFrom\n        balanceOf[_from] -= _value;\n        allowance[msg.sender][_from] -= _value;\n        emit Transfer(_from, _to, _value);\n        return true;\n    }\n*/    \n}\n",
  "sourcePath": "/Users/yang-euijin/development/blockchain/dApp/defi-staking/src/contracts/Tether.sol",
  "compiler": {
    "name": "solc",
    "version": "0.8.12+commit.f00d7308.Emscripten.clang"
  },
  "schemaVersion": "3.4.6",
  "updatedAt": "2022-03-16T06:05:08.718Z",
  "networkType": "ethereum",
  "devdoc": {
    "kind": "dev",
    "methods": {},
    "version": 1
  },
  "userdoc": {
    "kind": "user",
    "methods": {},
    "version": 1
  }
}